{
  "_format": "hh-sol-artifact-1",
  "contractName": "VotingPlatform",
  "sourceName": "contracts/VotingPlatform.sol",
  "abi": [
    {
      "anonymous": false,
      "inputs": [
        {
          "indexed": true,
          "internalType": "uint256",
          "name": "electionId",
          "type": "uint256"
        },
        {
          "indexed": true,
          "internalType": "uint256",
          "name": "candidateId",
          "type": "uint256"
        },
        {
          "indexed": false,
          "internalType": "string",
          "name": "name",
          "type": "string"
        }
      ],
      "name": "CandidateAdded",
      "type": "event"
    },
    {
      "anonymous": false,
      "inputs": [
        {
          "indexed": true,
          "internalType": "uint256",
          "name": "electionId",
          "type": "uint256"
        },
        {
          "indexed": true,
          "internalType": "address",
          "name": "owner",
          "type": "address"
        },
        {
          "indexed": false,
          "internalType": "string",
          "name": "title",
          "type": "string"
        },
        {
          "indexed": false,
          "internalType": "uint256",
          "name": "startTime",
          "type": "uint256"
        },
        {
          "indexed": false,
          "internalType": "uint256",
          "name": "endTime",
          "type": "uint256"
        },
        {
          "indexed": false,
          "internalType": "bool",
          "name": "useWhitelist",
          "type": "bool"
        }
      ],
      "name": "ElectionCreated",
      "type": "event"
    },
    {
      "anonymous": false,
      "inputs": [
        {
          "indexed": true,
          "internalType": "uint256",
          "name": "electionId",
          "type": "uint256"
        }
      ],
      "name": "ElectionDeleted",
      "type": "event"
    },
    {
      "anonymous": false,
      "inputs": [
        {
          "indexed": true,
          "internalType": "uint256",
          "name": "electionId",
          "type": "uint256"
        },
        {
          "indexed": true,
          "internalType": "address",
          "name": "voter",
          "type": "address"
        },
        {
          "indexed": true,
          "internalType": "uint256",
          "name": "candidateId",
          "type": "uint256"
        }
      ],
      "name": "VoteCast",
      "type": "event"
    },
    {
      "anonymous": false,
      "inputs": [
        {
          "indexed": true,
          "internalType": "uint256",
          "name": "electionId",
          "type": "uint256"
        },
        {
          "indexed": true,
          "internalType": "address",
          "name": "voter",
          "type": "address"
        },
        {
          "indexed": false,
          "internalType": "uint256",
          "name": "fromCandidateId",
          "type": "uint256"
        },
        {
          "indexed": false,
          "internalType": "uint256",
          "name": "toCandidateId",
          "type": "uint256"
        }
      ],
      "name": "VoteChanged",
      "type": "event"
    },
    {
      "anonymous": false,
      "inputs": [
        {
          "indexed": true,
          "internalType": "uint256",
          "name": "electionId",
          "type": "uint256"
        },
        {
          "indexed": true,
          "internalType": "address",
          "name": "voter",
          "type": "address"
        },
        {
          "indexed": false,
          "internalType": "uint256",
          "name": "candidateId",
          "type": "uint256"
        }
      ],
      "name": "VoteRevoked",
      "type": "event"
    },
    {
      "inputs": [
        {
          "internalType": "uint256",
          "name": "electionId",
          "type": "uint256"
        },
        {
          "internalType": "string",
          "name": "name",
          "type": "string"
        }
      ],
      "name": "addCandidate",
      "outputs": [],
      "stateMutability": "nonpayable",
      "type": "function"
    },
    {
      "inputs": [
        {
          "internalType": "uint256",
          "name": "",
          "type": "uint256"
        },
        {
          "internalType": "uint256",
          "name": "",
          "type": "uint256"
        }
      ],
      "name": "candidates",
      "outputs": [
        {
          "internalType": "uint256",
          "name": "id",
          "type": "uint256"
        },
        {
          "internalType": "string",
          "name": "name",
          "type": "string"
        },
        {
          "internalType": "uint256",
          "name": "voteCount",
          "type": "uint256"
        }
      ],
      "stateMutability": "view",
      "type": "function"
    },
    {
      "inputs": [
        {
          "internalType": "string",
          "name": "title",
          "type": "string"
        },
        {
          "internalType": "uint256",
          "name": "durationSeconds",
          "type": "uint256"
        },
        {
          "internalType": "bool",
          "name": "useWhitelist",
          "type": "bool"
        }
      ],
      "name": "createElection",
      "outputs": [
        {
          "internalType": "uint256",
          "name": "electionId",
          "type": "uint256"
        }
      ],
      "stateMutability": "nonpayable",
      "type": "function"
    },
    {
      "inputs": [
        {
          "internalType": "uint256",
          "name": "electionId",
          "type": "uint256"
        }
      ],
      "name": "deleteElection",
      "outputs": [],
      "stateMutability": "nonpayable",
      "type": "function"
    },
    {
      "inputs": [
        {
          "internalType": "uint256",
          "name": "",
          "type": "uint256"
        }
      ],
      "name": "elections",
      "outputs": [
        {
          "internalType": "uint256",
          "name": "id",
          "type": "uint256"
        },
        {
          "internalType": "string",
          "name": "title",
          "type": "string"
        },
        {
          "internalType": "address",
          "name": "owner",
          "type": "address"
        },
        {
          "internalType": "uint256",
          "name": "startTime",
          "type": "uint256"
        },
        {
          "internalType": "uint256",
          "name": "endTime",
          "type": "uint256"
        },
        {
          "internalType": "bool",
          "name": "isDeleted",
          "type": "bool"
        },
        {
          "internalType": "bool",
          "name": "useWhitelist",
          "type": "bool"
        },
        {
          "internalType": "uint256",
          "name": "candidatesCount",
          "type": "uint256"
        }
      ],
      "stateMutability": "view",
      "type": "function"
    },
    {
      "inputs": [],
      "name": "electionsCount",
      "outputs": [
        {
          "internalType": "uint256",
          "name": "",
          "type": "uint256"
        }
      ],
      "stateMutability": "view",
      "type": "function"
    },
    {
      "inputs": [
        {
          "internalType": "uint256",
          "name": "electionId",
          "type": "uint256"
        }
      ],
      "name": "getElectionMeta",
      "outputs": [
        {
          "internalType": "string",
          "name": "title",
          "type": "string"
        },
        {
          "internalType": "address",
          "name": "owner",
          "type": "address"
        },
        {
          "internalType": "uint256",
          "name": "startTime",
          "type": "uint256"
        },
        {
          "internalType": "uint256",
          "name": "endTime",
          "type": "uint256"
        },
        {
          "internalType": "bool",
          "name": "isDeleted",
          "type": "bool"
        },
        {
          "internalType": "bool",
          "name": "useWhitelist",
          "type": "bool"
        },
        {
          "internalType": "uint256",
          "name": "candidatesCount",
          "type": "uint256"
        }
      ],
      "stateMutability": "view",
      "type": "function"
    },
    {
      "inputs": [
        {
          "internalType": "uint256",
          "name": "electionId",
          "type": "uint256"
        }
      ],
      "name": "getResults",
      "outputs": [
        {
          "components": [
            {
              "internalType": "uint256",
              "name": "id",
              "type": "uint256"
            },
            {
              "internalType": "string",
              "name": "name",
              "type": "string"
            },
            {
              "internalType": "uint256",
              "name": "voteCount",
              "type": "uint256"
            }
          ],
          "internalType": "struct VotingPlatform.Candidate[]",
          "name": "results",
          "type": "tuple[]"
        }
      ],
      "stateMutability": "view",
      "type": "function"
    },
    {
      "inputs": [
        {
          "internalType": "uint256",
          "name": "",
          "type": "uint256"
        },
        {
          "internalType": "address",
          "name": "",
          "type": "address"
        }
      ],
      "name": "isEligible",
      "outputs": [
        {
          "internalType": "bool",
          "name": "",
          "type": "bool"
        }
      ],
      "stateMutability": "view",
      "type": "function"
    },
    {
      "inputs": [
        {
          "internalType": "uint256",
          "name": "electionId",
          "type": "uint256"
        },
        {
          "internalType": "address[]",
          "name": "voters",
          "type": "address[]"
        }
      ],
      "name": "registerVoters",
      "outputs": [],
      "stateMutability": "nonpayable",
      "type": "function"
    },
    {
      "inputs": [
        {
          "internalType": "uint256",
          "name": "electionId",
          "type": "uint256"
        }
      ],
      "name": "revokeVote",
      "outputs": [],
      "stateMutability": "nonpayable",
      "type": "function"
    },
    {
      "inputs": [
        {
          "internalType": "uint256",
          "name": "electionId",
          "type": "uint256"
        },
        {
          "internalType": "uint256",
          "name": "candidateId",
          "type": "uint256"
        }
      ],
      "name": "vote",
      "outputs": [],
      "stateMutability": "nonpayable",
      "type": "function"
    },
    {
      "inputs": [
        {
          "internalType": "uint256",
          "name": "",
          "type": "uint256"
        },
        {
          "internalType": "address",
          "name": "",
          "type": "address"
        }
      ],
      "name": "voteOf",
      "outputs": [
        {
          "internalType": "uint256",
          "name": "",
          "type": "uint256"
        }
      ],
      "stateMutability": "view",
      "type": "function"
    }
  ],
  "bytecode": "0x608060405234801561001057600080fd5b50612de7806100206000396000f3fe608060405234801561001057600080fd5b50600436106100cf5760003560e01c80637de142421161008c578063b384abef11610066578063b384abef14610253578063d16dd9af1461026f578063ed950a5a1461028b578063f73a8b4a146102c1576100cf565b80637de14242146101d357806381a60c0d146102055780639a74c69514610235576100cf565b80631750a3d0146100d457806345ddc85d146100f057806354b9e99814610120578063592e0e00146101505780635e6fef0114610180578063740c47d4146101b7575b600080fd5b6100ee60048036038101906100e99190611c24565b6102dd565b005b61010a60048036038101906101059190611ce2565b6105fd565b6040516101179190611d31565b60405180910390f35b61013a60048036038101906101359190611d84565b610622565b6040516101479190611d31565b60405180910390f35b61016a60048036038101906101659190611ce2565b6108b5565b6040516101779190611e07565b60405180910390f35b61019a60048036038101906101959190611e22565b6108e4565b6040516101ae989796959493929190611eee565b60405180910390f35b6101d160048036038101906101cc9190611e22565b6109ee565b005b6101ed60048036038101906101e89190611f73565b610bf7565b6040516101fc93929190611fb3565b60405180910390f35b61021f600480360381019061021a9190611e22565b610cb6565b60405161022c919061215c565b60405180910390f35b61023d610ead565b60405161024a9190611d31565b60405180910390f35b61026d60048036038101906102689190611f73565b610eb3565b005b610289600480360381019061028491906121d4565b611323565b005b6102a560048036038101906102a09190611e22565b611640565b6040516102b89796959493929190612234565b60405180910390f35b6102db60048036038101906102d69190611e22565b6117b7565b005b826000811180156102f057506000548111155b61032f576040517f08c379a0000000000000000000000000000000000000000000000000000000008152600401610326906122f6565b60405180910390fd5b836001600082815260200190815260200160002060020160009054906101000a900473ffffffffffffffffffffffffffffffffffffffff1673ffffffffffffffffffffffffffffffffffffffff163373ffffffffffffffffffffffffffffffffffffffff16146103d4576040517f08c379a00000000000000000000000000000000000000000000000000000000081526004016103cb90612362565b60405180910390fd5b8460006001600083815260200190815260200160002090508060050160009054906101000a900460ff161561043e576040517f08c379a0000000000000000000000000000000000000000000000000000000008152600401610435906123ce565b60405180910390fd5b80600401544210610484576040517f08c379a000000000000000000000000000000000000000000000000000000000815260040161047b9061243a565b60405180910390fd5b600086869050116104ca576040517f08c379a00000000000000000000000000000000000000000000000000000000081526004016104c1906124a6565b60405180910390fd5b600060016000898152602001908152602001600020905060018160060160008282546104f691906124f5565b92505081905550600081600601549050604051806060016040528082815260200189898080601f016020809104026020016040519081016040528093929190818152602001838380828437600081840152601f19601f8201169050808301925050505050505081526020016000815250600260008b815260200190815260200160002060008381526020019081526020016000206000820151816000015560208201518160010190816105a99190612764565b506040820151816002015590505080897fed8911b3df733b7d5f75724158e54478ea12e30f49c9d31b5261879f5b76586f8a8a6040516105ea929190612872565b60405180910390a3505050505050505050565b6003602052816000526040600020602052806000526040600020600091509150505481565b6000808585905011610669576040517f08c379a0000000000000000000000000000000000000000000000000000000008152600401610660906128e2565b60405180910390fd5b600083116106ac576040517f08c379a00000000000000000000000000000000000000000000000000000000081526004016106a39061294e565b60405180910390fd5b60016000808282546106be91906124f5565b9250508190555060005490506000429050600084826106dd91906124f5565b905060405180610100016040528084815260200188888080601f016020809104026020016040519081016040528093929190818152602001838380828437600081840152601f19601f8201169050808301925050505050505081526020013373ffffffffffffffffffffffffffffffffffffffff16815260200183815260200182815260200160001515815260200185151581526020016000815250600160008581526020019081526020016000206000820151816000015560208201518160010190816107ab9190612764565b5060408201518160020160006101000a81548173ffffffffffffffffffffffffffffffffffffffff021916908373ffffffffffffffffffffffffffffffffffffffff160217905550606082015181600301556080820151816004015560a08201518160050160006101000a81548160ff02191690831515021790555060c08201518160050160016101000a81548160ff02191690831515021790555060e082015181600601559050503373ffffffffffffffffffffffffffffffffffffffff16837faaff66088e198af26d40e0ff141aa627393557eb7677db2e808fb6cd7e2be902898986868a6040516108a395949392919061296e565b60405180910390a35050949350505050565b60046020528160005260406000206020528060005260406000206000915091509054906101000a900460ff1681565b600160205280600052604060002060009150905080600001549080600101805461090d90612587565b80601f016020809104026020016040519081016040528092919081815260200182805461093990612587565b80156109865780601f1061095b57610100808354040283529160200191610986565b820191906000526020600020905b81548152906001019060200180831161096957829003601f168201915b5050505050908060020160009054906101000a900473ffffffffffffffffffffffffffffffffffffffff16908060030154908060040154908060050160009054906101000a900460ff16908060050160019054906101000a900460ff16908060060154905088565b80600081118015610a0157506000548111155b610a40576040517f08c379a0000000000000000000000000000000000000000000000000000000008152600401610a37906122f6565b60405180910390fd5b816001600082815260200190815260200160002060020160009054906101000a900473ffffffffffffffffffffffffffffffffffffffff1673ffffffffffffffffffffffffffffffffffffffff163373ffffffffffffffffffffffffffffffffffffffff1614610ae5576040517f08c379a0000000000000000000000000000000000000000000000000000000008152600401610adc90612362565b60405180910390fd5b8260006001600083815260200190815260200160002090508060050160009054906101000a900460ff1615610b4f576040517f08c379a0000000000000000000000000000000000000000000000000000000008152600401610b46906123ce565b60405180910390fd5b80600401544210610b95576040517f08c379a0000000000000000000000000000000000000000000000000000000008152600401610b8c9061243a565b60405180910390fd5b600180600087815260200190815260200160002060050160006101000a81548160ff021916908315150217905550847fbb78d5fa658dbdad95908d420646ea8bb64f50a9daa1acaa682effe6703f1ed760405160405180910390a25050505050565b600260205281600052604060002060205280600052604060002060009150915050806000015490806001018054610c2d90612587565b80601f0160208091040260200160405190810160405280929190818152602001828054610c5990612587565b8015610ca65780601f10610c7b57610100808354040283529160200191610ca6565b820191906000526020600020905b815481529060010190602001808311610c8957829003601f168201915b5050505050908060020154905083565b606081600081118015610ccb57506000548111155b610d0a576040517f08c379a0000000000000000000000000000000000000000000000000000000008152600401610d01906122f6565b60405180910390fd5b6000600160008581526020019081526020016000209050806006015467ffffffffffffffff811115610d3f57610d3e612529565b5b604051908082528060200260200182016040528015610d7857816020015b610d65611b5e565b815260200190600190039081610d5d5790505b50925060005b8160060154811015610ea5576000600182610d9991906124f5565b905060006002600088815260200190815260200160002060008381526020019081526020016000209050604051806060016040528082600001548152602001826001018054610de790612587565b80601f0160208091040260200160405190810160405280929190818152602001828054610e1390612587565b8015610e605780601f10610e3557610100808354040283529160200191610e60565b820191906000526020600020905b815481529060010190602001808311610e4357829003601f168201915b505050505081526020018260020154815250868481518110610e8557610e846129bc565b5b602002602001018190525050508080610e9d906129eb565b915050610d7e565b505050919050565b60005481565b81600081118015610ec657506000548111155b610f05576040517f08c379a0000000000000000000000000000000000000000000000000000000008152600401610efc906122f6565b60405180910390fd5b8260006001600083815260200190815260200160002090508060050160009054906101000a900460ff1615610f6f576040517f08c379a0000000000000000000000000000000000000000000000000000000008152600401610f66906123ce565b60405180910390fd5b80600401544210610fb5576040517f08c379a0000000000000000000000000000000000000000000000000000000008152600401610fac9061243a565b60405180910390fd5b610fbf8533611a93565b6000600160008781526020019081526020016000209050600085118015610fea575080600601548511155b611029576040517f08c379a000000000000000000000000000000000000000000000000000000000815260040161102090612a7f565b60405180910390fd5b60006003600088815260200190815260200160002060003373ffffffffffffffffffffffffffffffffffffffff1673ffffffffffffffffffffffffffffffffffffffff1681526020019081526020016000205490506000810361116657856003600089815260200190815260200160002060003373ffffffffffffffffffffffffffffffffffffffff1673ffffffffffffffffffffffffffffffffffffffff168152602001908152602001600020819055506001600260008981526020019081526020016000206000888152602001908152602001600020600201600082825461111391906124f5565b92505081905550853373ffffffffffffffffffffffffffffffffffffffff16887f2acce567deca3aabf56327adbb4524bd5318936eaefa69e3a5208ffda0cfec0960405160405180910390a4505061131c565b8581036111a8576040517f08c379a000000000000000000000000000000000000000000000000000000000815260040161119f90612aeb565b60405180910390fd5b600060026000898152602001908152602001600020600083815260200190815260200160002090506000816002015411611217576040517f08c379a000000000000000000000000000000000000000000000000000000000815260040161120e90612b57565b60405180910390fd5b600181600201600082825461122c9190612b77565b925050819055506001600260008a81526020019081526020016000206000898152602001908152602001600020600201600082825461126b91906124f5565b9250508190555086600360008a815260200190815260200160002060003373ffffffffffffffffffffffffffffffffffffffff1673ffffffffffffffffffffffffffffffffffffffff168152602001908152602001600020819055503373ffffffffffffffffffffffffffffffffffffffff16887f5f441ad092f24a51b249298a3695ee0ddae820f5c9b01a017a298a32fc3557f2848a604051611310929190612bab565b60405180910390a35050505b5050505050565b8260008111801561133657506000548111155b611375576040517f08c379a000000000000000000000000000000000000000000000000000000000815260040161136c906122f6565b60405180910390fd5b836001600082815260200190815260200160002060020160009054906101000a900473ffffffffffffffffffffffffffffffffffffffff1673ffffffffffffffffffffffffffffffffffffffff163373ffffffffffffffffffffffffffffffffffffffff161461141a576040517f08c379a000000000000000000000000000000000000000000000000000000000815260040161141190612362565b60405180910390fd5b8460006001600083815260200190815260200160002090508060050160009054906101000a900460ff1615611484576040517f08c379a000000000000000000000000000000000000000000000000000000000815260040161147b906123ce565b60405180910390fd5b806004015442106114ca576040517f08c379a00000000000000000000000000000000000000000000000000000000081526004016114c19061243a565b60405180910390fd5b60008686905011611510576040517f08c379a000000000000000000000000000000000000000000000000000000000815260040161150790612c20565b60405180910390fd5b60005b86869050811015611636576000878783818110611533576115326129bc565b5b90506020020160208101906115489190612c40565b9050600073ffffffffffffffffffffffffffffffffffffffff168173ffffffffffffffffffffffffffffffffffffffff16036115b9576040517f08c379a00000000000000000000000000000000000000000000000000000000081526004016115b090612cb9565b60405180910390fd5b6001600460008b815260200190815260200160002060008373ffffffffffffffffffffffffffffffffffffffff1673ffffffffffffffffffffffffffffffffffffffff16815260200190815260200160002060006101000a81548160ff02191690831515021790555050808061162e906129eb565b915050611513565b5050505050505050565b60606000806000806000808760008111801561165e57506000548111155b61169d576040517f08c379a0000000000000000000000000000000000000000000000000000000008152600401611694906122f6565b60405180910390fd5b6000600160008b81526020019081526020016000209050806001018160020160009054906101000a900473ffffffffffffffffffffffffffffffffffffffff16826003015483600401548460050160009054906101000a900460ff168560050160019054906101000a900460ff16866006015486805461171c90612587565b80601f016020809104026020016040519081016040528092919081815260200182805461174890612587565b80156117955780601f1061176a57610100808354040283529160200191611795565b820191906000526020600020905b81548152906001019060200180831161177857829003601f168201915b5050505050965098509850985098509850985098505050919395979092949650565b806000811180156117ca57506000548111155b611809576040517f08c379a0000000000000000000000000000000000000000000000000000000008152600401611800906122f6565b60405180910390fd5b8160006001600083815260200190815260200160002090508060050160009054906101000a900460ff1615611873576040517f08c379a000000000000000000000000000000000000000000000000000000000815260040161186a906123ce565b60405180910390fd5b806004015442106118b9576040517f08c379a00000000000000000000000000000000000000000000000000000000081526004016118b09061243a565b60405180910390fd5b6118c38433611a93565b60006003600086815260200190815260200160002060003373ffffffffffffffffffffffffffffffffffffffff1673ffffffffffffffffffffffffffffffffffffffff1681526020019081526020016000205490506000810361195b576040517f08c379a000000000000000000000000000000000000000000000000000000000815260040161195290612d25565b60405180910390fd5b6000600260008781526020019081526020016000206000838152602001908152602001600020905060008160020154116119ca576040517f08c379a00000000000000000000000000000000000000000000000000000000081526004016119c190612b57565b60405180910390fd5b60018160020160008282546119df9190612b77565b9250508190555060006003600088815260200190815260200160002060003373ffffffffffffffffffffffffffffffffffffffff1673ffffffffffffffffffffffffffffffffffffffff168152602001908152602001600020819055503373ffffffffffffffffffffffffffffffffffffffff16867f3f6e81bd7cd2eb7b3170d79696ba406902b871b6458156e4bfc678abf9fe61d884604051611a839190611d31565b60405180910390a3505050505050565b6001600083815260200190815260200160002060050160019054906101000a900460ff1615611b5a576004600083815260200190815260200160002060008273ffffffffffffffffffffffffffffffffffffffff1673ffffffffffffffffffffffffffffffffffffffff16815260200190815260200160002060009054906101000a900460ff16611b59576040517f08c379a0000000000000000000000000000000000000000000000000000000008152600401611b5090612d91565b60405180910390fd5b5b5050565b60405180606001604052806000815260200160608152602001600081525090565b600080fd5b600080fd5b6000819050919050565b611b9c81611b89565b8114611ba757600080fd5b50565b600081359050611bb981611b93565b92915050565b600080fd5b600080fd5b600080fd5b60008083601f840112611be457611be3611bbf565b5b8235905067ffffffffffffffff811115611c0157611c00611bc4565b5b602083019150836001820283011115611c1d57611c1c611bc9565b5b9250929050565b600080600060408486031215611c3d57611c3c611b7f565b5b6000611c4b86828701611baa565b935050602084013567ffffffffffffffff811115611c6c57611c6b611b84565b5b611c7886828701611bce565b92509250509250925092565b600073ffffffffffffffffffffffffffffffffffffffff82169050919050565b6000611caf82611c84565b9050919050565b611cbf81611ca4565b8114611cca57600080fd5b50565b600081359050611cdc81611cb6565b92915050565b60008060408385031215611cf957611cf8611b7f565b5b6000611d0785828601611baa565b9250506020611d1885828601611ccd565b9150509250929050565b611d2b81611b89565b82525050565b6000602082019050611d466000830184611d22565b92915050565b60008115159050919050565b611d6181611d4c565b8114611d6c57600080fd5b50565b600081359050611d7e81611d58565b92915050565b60008060008060608587031215611d9e57611d9d611b7f565b5b600085013567ffffffffffffffff811115611dbc57611dbb611b84565b5b611dc887828801611bce565b94509450506020611ddb87828801611baa565b9250506040611dec87828801611d6f565b91505092959194509250565b611e0181611d4c565b82525050565b6000602082019050611e1c6000830184611df8565b92915050565b600060208284031215611e3857611e37611b7f565b5b6000611e4684828501611baa565b91505092915050565b600081519050919050565b600082825260208201905092915050565b60005b83811015611e89578082015181840152602081019050611e6e565b60008484015250505050565b6000601f19601f8301169050919050565b6000611eb182611e4f565b611ebb8185611e5a565b9350611ecb818560208601611e6b565b611ed481611e95565b840191505092915050565b611ee881611ca4565b82525050565b600061010082019050611f04600083018b611d22565b8181036020830152611f16818a611ea6565b9050611f256040830189611edf565b611f326060830188611d22565b611f3f6080830187611d22565b611f4c60a0830186611df8565b611f5960c0830185611df8565b611f6660e0830184611d22565b9998505050505050505050565b60008060408385031215611f8a57611f89611b7f565b5b6000611f9885828601611baa565b9250506020611fa985828601611baa565b9150509250929050565b6000606082019050611fc86000830186611d22565b8181036020830152611fda8185611ea6565b9050611fe96040830184611d22565b949350505050565b600081519050919050565b600082825260208201905092915050565b6000819050602082019050919050565b61202681611b89565b82525050565b600082825260208201905092915050565b600061204882611e4f565b612052818561202c565b9350612062818560208601611e6b565b61206b81611e95565b840191505092915050565b600060608301600083015161208e600086018261201d565b50602083015184820360208601526120a6828261203d565b91505060408301516120bb604086018261201d565b508091505092915050565b60006120d28383612076565b905092915050565b6000602082019050919050565b60006120f282611ff1565b6120fc8185611ffc565b93508360208202850161210e8561200d565b8060005b8581101561214a578484038952815161212b85826120c6565b9450612136836120da565b925060208a01995050600181019050612112565b50829750879550505050505092915050565b6000602082019050818103600083015261217681846120e7565b905092915050565b60008083601f84011261219457612193611bbf565b5b8235905067ffffffffffffffff8111156121b1576121b0611bc4565b5b6020830191508360208202830111156121cd576121cc611bc9565b5b9250929050565b6000806000604084860312156121ed576121ec611b7f565b5b60006121fb86828701611baa565b935050602084013567ffffffffffffffff81111561221c5761221b611b84565b5b6122288682870161217e565b92509250509250925092565b600060e082019050818103600083015261224e818a611ea6565b905061225d6020830189611edf565b61226a6040830188611d22565b6122776060830187611d22565b6122846080830186611df8565b61229160a0830185611df8565b61229e60c0830184611d22565b98975050505050505050565b7f456c656374696f6e206e6f7420666f756e640000000000000000000000000000600082015250565b60006122e0601283611e5a565b91506122eb826122aa565b602082019050919050565b6000602082019050818103600083015261230f816122d3565b9050919050565b7f4f6e6c7920656c656374696f6e206f776e657200000000000000000000000000600082015250565b600061234c601383611e5a565b915061235782612316565b602082019050919050565b6000602082019050818103600083015261237b8161233f565b9050919050565b7f456c656374696f6e2064656c6574656400000000000000000000000000000000600082015250565b60006123b8601083611e5a565b91506123c382612382565b602082019050919050565b600060208201905081810360008301526123e7816123ab565b9050919050565b7f456c656374696f6e20656e646564000000000000000000000000000000000000600082015250565b6000612424600e83611e5a565b915061242f826123ee565b602082019050919050565b6000602082019050818103600083015261245381612417565b9050919050565b7f4e616d6520726571756972656400000000000000000000000000000000000000600082015250565b6000612490600d83611e5a565b915061249b8261245a565b602082019050919050565b600060208201905081810360008301526124bf81612483565b9050919050565b7f4e487b7100000000000000000000000000000000000000000000000000000000600052601160045260246000fd5b600061250082611b89565b915061250b83611b89565b9250828201905080821115612523576125226124c6565b5b92915050565b7f4e487b7100000000000000000000000000000000000000000000000000000000600052604160045260246000fd5b7f4e487b7100000000000000000000000000000000000000000000000000000000600052602260045260246000fd5b6000600282049050600182168061259f57607f821691505b6020821081036125b2576125b1612558565b5b50919050565b60008190508160005260206000209050919050565b60006020601f8301049050919050565b600082821b905092915050565b60006008830261261a7fffffffffffffffffffffffffffffffffffffffffffffffffffffffffffffffff826125dd565b61262486836125dd565b95508019841693508086168417925050509392505050565b6000819050919050565b600061266161265c61265784611b89565b61263c565b611b89565b9050919050565b6000819050919050565b61267b83612646565b61268f61268782612668565b8484546125ea565b825550505050565b600090565b6126a4612697565b6126af818484612672565b505050565b5b818110156126d3576126c860008261269c565b6001810190506126b5565b5050565b601f821115612718576126e9816125b8565b6126f2846125cd565b81016020851015612701578190505b61271561270d856125cd565b8301826126b4565b50505b505050565b600082821c905092915050565b600061273b6000198460080261271d565b1980831691505092915050565b6000612754838361272a565b9150826002028217905092915050565b61276d82611e4f565b67ffffffffffffffff81111561278657612785612529565b5b6127908254612587565b61279b8282856126d7565b600060209050601f8311600181146127ce57600084156127bc578287015190505b6127c68582612748565b86555061282e565b601f1984166127dc866125b8565b60005b82811015612804578489015182556001820191506020850194506020810190506127df565b86831015612821578489015161281d601f89168261272a565b8355505b6001600288020188555050505b505050505050565b82818337600083830152505050565b60006128518385611e5a565b935061285e838584612836565b61286783611e95565b840190509392505050565b6000602082019050818103600083015261288d818486612845565b90509392505050565b7f5469746c65207265717569726564000000000000000000000000000000000000600082015250565b60006128cc600e83611e5a565b91506128d782612896565b602082019050919050565b600060208201905081810360008301526128fb816128bf565b9050919050565b7f4475726174696f6e207265717569726564000000000000000000000000000000600082015250565b6000612938601183611e5a565b915061294382612902565b602082019050919050565b600060208201905081810360008301526129678161292b565b9050919050565b60006080820190508181036000830152612989818789612845565b90506129986020830186611d22565b6129a56040830185611d22565b6129b26060830184611df8565b9695505050505050565b7f4e487b7100000000000000000000000000000000000000000000000000000000600052603260045260246000fd5b60006129f682611b89565b91507fffffffffffffffffffffffffffffffffffffffffffffffffffffffffffffffff8203612a2857612a276124c6565b5b600182019050919050565b7f496e76616c69642063616e646964617465000000000000000000000000000000600082015250565b6000612a69601183611e5a565b9150612a7482612a33565b602082019050919050565b60006020820190508181036000830152612a9881612a5c565b9050919050565b7f416c726561647920766f74656420746869732063616e64696461746500000000600082015250565b6000612ad5601c83611e5a565b9150612ae082612a9f565b602082019050919050565b60006020820190508181036000830152612b0481612ac8565b9050919050565b7f436f727275707420766f7465436f756e74000000000000000000000000000000600082015250565b6000612b41601183611e5a565b9150612b4c82612b0b565b602082019050919050565b60006020820190508181036000830152612b7081612b34565b9050919050565b6000612b8282611b89565b9150612b8d83611b89565b9250828203905081811115612ba557612ba46124c6565b5b92915050565b6000604082019050612bc06000830185611d22565b612bcd6020830184611d22565b9392505050565b7f456d707479206c69737400000000000000000000000000000000000000000000600082015250565b6000612c0a600a83611e5a565b9150612c1582612bd4565b602082019050919050565b60006020820190508181036000830152612c3981612bfd565b9050919050565b600060208284031215612c5657612c55611b7f565b5b6000612c6484828501611ccd565b91505092915050565b7f5a65726f20616464726573730000000000000000000000000000000000000000600082015250565b6000612ca3600c83611e5a565b9150612cae82612c6d565b602082019050919050565b60006020820190508181036000830152612cd281612c96565b9050919050565b7f4e6f20766f746520746f207265766f6b65000000000000000000000000000000600082015250565b6000612d0f601183611e5a565b9150612d1a82612cd9565b602082019050919050565b60006020820190508181036000830152612d3e81612d02565b9050919050565b7f4e6f742077686974656c69737465640000000000000000000000000000000000600082015250565b6000612d7b600f83611e5a565b9150612d8682612d45565b602082019050919050565b60006020820190508181036000830152612daa81612d6e565b905091905056fea26469706673582212209593cd5fd408095847cd2e441f3eff721ac0bcac3b7272e8a95f16f77541f01764736f6c63430008140033",
  "linkReferences": {},
  "deployedLinkReferences": {}
}