{
  "_format": "hh-sol-artifact-1",
  "contractName": "VotingPlatform",
  "sourceName": "contracts/VotingPlatform.sol",
  "abi": [
    {
      "anonymous": false,
      "inputs": [
        {
          "indexed": true,
          "internalType": "uint256",
          "name": "electionId",
          "type": "uint256"
        },
        {
          "indexed": true,
          "internalType": "uint256",
          "name": "candidateId",
          "type": "uint256"
        },
        {
          "indexed": false,
          "internalType": "string",
          "name": "name",
          "type": "string"
        }
      ],
      "name": "CandidateAdded",
      "type": "event"
    },
    {
      "anonymous": false,
      "inputs": [
        {
          "indexed": true,
          "internalType": "uint256",
          "name": "electionId",
          "type": "uint256"
        },
        {
          "indexed": true,
          "internalType": "address",
          "name": "owner",
          "type": "address"
        },
        {
          "indexed": false,
          "internalType": "string",
          "name": "title",
          "type": "string"
        },
        {
          "indexed": false,
          "internalType": "uint256",
          "name": "startTime",
          "type": "uint256"
        },
        {
          "indexed": false,
          "internalType": "uint256",
          "name": "endTime",
          "type": "uint256"
        },
        {
          "indexed": false,
          "internalType": "bool",
          "name": "useWhitelist",
          "type": "bool"
        }
      ],
      "name": "ElectionCreated",
      "type": "event"
    },
    {
      "anonymous": false,
      "inputs": [
        {
          "indexed": true,
          "internalType": "uint256",
          "name": "electionId",
          "type": "uint256"
        }
      ],
      "name": "ElectionDeleted",
      "type": "event"
    },
    {
      "anonymous": false,
      "inputs": [
        {
          "indexed": true,
          "internalType": "uint256",
          "name": "electionId",
          "type": "uint256"
        },
        {
          "indexed": true,
          "internalType": "address",
          "name": "voter",
          "type": "address"
        },
        {
          "indexed": true,
          "internalType": "address",
          "name": "owner",
          "type": "address"
        }
      ],
      "name": "JoinApproved",
      "type": "event"
    },
    {
      "anonymous": false,
      "inputs": [
        {
          "indexed": true,
          "internalType": "uint256",
          "name": "electionId",
          "type": "uint256"
        },
        {
          "indexed": true,
          "internalType": "address",
          "name": "voter",
          "type": "address"
        }
      ],
      "name": "JoinRequested",
      "type": "event"
    },
    {
      "anonymous": false,
      "inputs": [
        {
          "indexed": true,
          "internalType": "uint256",
          "name": "electionId",
          "type": "uint256"
        },
        {
          "indexed": true,
          "internalType": "address",
          "name": "voter",
          "type": "address"
        },
        {
          "indexed": true,
          "internalType": "uint256",
          "name": "candidateId",
          "type": "uint256"
        }
      ],
      "name": "VoteCast",
      "type": "event"
    },
    {
      "anonymous": false,
      "inputs": [
        {
          "indexed": true,
          "internalType": "uint256",
          "name": "electionId",
          "type": "uint256"
        },
        {
          "indexed": true,
          "internalType": "address",
          "name": "voter",
          "type": "address"
        },
        {
          "indexed": false,
          "internalType": "uint256",
          "name": "fromCandidateId",
          "type": "uint256"
        },
        {
          "indexed": false,
          "internalType": "uint256",
          "name": "toCandidateId",
          "type": "uint256"
        }
      ],
      "name": "VoteChanged",
      "type": "event"
    },
    {
      "anonymous": false,
      "inputs": [
        {
          "indexed": true,
          "internalType": "uint256",
          "name": "electionId",
          "type": "uint256"
        },
        {
          "indexed": true,
          "internalType": "address",
          "name": "voter",
          "type": "address"
        },
        {
          "indexed": false,
          "internalType": "uint256",
          "name": "candidateId",
          "type": "uint256"
        }
      ],
      "name": "VoteRevoked",
      "type": "event"
    },
    {
      "inputs": [
        {
          "internalType": "uint256",
          "name": "electionId",
          "type": "uint256"
        },
        {
          "internalType": "string",
          "name": "name",
          "type": "string"
        }
      ],
      "name": "addCandidate",
      "outputs": [],
      "stateMutability": "nonpayable",
      "type": "function"
    },
    {
      "inputs": [
        {
          "internalType": "uint256",
          "name": "electionId",
          "type": "uint256"
        },
        {
          "internalType": "address",
          "name": "voter",
          "type": "address"
        }
      ],
      "name": "approveJoinRequest",
      "outputs": [],
      "stateMutability": "nonpayable",
      "type": "function"
    },
    {
      "inputs": [
        {
          "internalType": "uint256",
          "name": "",
          "type": "uint256"
        },
        {
          "internalType": "uint256",
          "name": "",
          "type": "uint256"
        }
      ],
      "name": "candidates",
      "outputs": [
        {
          "internalType": "uint256",
          "name": "id",
          "type": "uint256"
        },
        {
          "internalType": "string",
          "name": "name",
          "type": "string"
        },
        {
          "internalType": "uint256",
          "name": "voteCount",
          "type": "uint256"
        }
      ],
      "stateMutability": "view",
      "type": "function"
    },
    {
      "inputs": [
        {
          "internalType": "string",
          "name": "title",
          "type": "string"
        },
        {
          "internalType": "uint256",
          "name": "durationSeconds",
          "type": "uint256"
        },
        {
          "internalType": "bool",
          "name": "useWhitelist",
          "type": "bool"
        }
      ],
      "name": "createElection",
      "outputs": [
        {
          "internalType": "uint256",
          "name": "electionId",
          "type": "uint256"
        }
      ],
      "stateMutability": "nonpayable",
      "type": "function"
    },
    {
      "inputs": [
        {
          "internalType": "uint256",
          "name": "electionId",
          "type": "uint256"
        }
      ],
      "name": "deleteElection",
      "outputs": [],
      "stateMutability": "nonpayable",
      "type": "function"
    },
    {
      "inputs": [
        {
          "internalType": "uint256",
          "name": "",
          "type": "uint256"
        }
      ],
      "name": "elections",
      "outputs": [
        {
          "internalType": "uint256",
          "name": "id",
          "type": "uint256"
        },
        {
          "internalType": "string",
          "name": "title",
          "type": "string"
        },
        {
          "internalType": "address",
          "name": "owner",
          "type": "address"
        },
        {
          "internalType": "uint256",
          "name": "startTime",
          "type": "uint256"
        },
        {
          "internalType": "uint256",
          "name": "endTime",
          "type": "uint256"
        },
        {
          "internalType": "bool",
          "name": "isDeleted",
          "type": "bool"
        },
        {
          "internalType": "bool",
          "name": "useWhitelist",
          "type": "bool"
        },
        {
          "internalType": "uint256",
          "name": "candidatesCount",
          "type": "uint256"
        }
      ],
      "stateMutability": "view",
      "type": "function"
    },
    {
      "inputs": [],
      "name": "electionsCount",
      "outputs": [
        {
          "internalType": "uint256",
          "name": "",
          "type": "uint256"
        }
      ],
      "stateMutability": "view",
      "type": "function"
    },
    {
      "inputs": [
        {
          "internalType": "uint256",
          "name": "electionId",
          "type": "uint256"
        }
      ],
      "name": "getElectionMeta",
      "outputs": [
        {
          "internalType": "string",
          "name": "title",
          "type": "string"
        },
        {
          "internalType": "address",
          "name": "owner",
          "type": "address"
        },
        {
          "internalType": "uint256",
          "name": "startTime",
          "type": "uint256"
        },
        {
          "internalType": "uint256",
          "name": "endTime",
          "type": "uint256"
        },
        {
          "internalType": "bool",
          "name": "isDeleted",
          "type": "bool"
        },
        {
          "internalType": "bool",
          "name": "useWhitelist",
          "type": "bool"
        },
        {
          "internalType": "uint256",
          "name": "candidatesCount",
          "type": "uint256"
        }
      ],
      "stateMutability": "view",
      "type": "function"
    },
    {
      "inputs": [
        {
          "internalType": "uint256",
          "name": "electionId",
          "type": "uint256"
        }
      ],
      "name": "getJoinRequests",
      "outputs": [
        {
          "internalType": "address[]",
          "name": "requesters",
          "type": "address[]"
        }
      ],
      "stateMutability": "view",
      "type": "function"
    },
    {
      "inputs": [
        {
          "internalType": "uint256",
          "name": "electionId",
          "type": "uint256"
        }
      ],
      "name": "getResults",
      "outputs": [
        {
          "components": [
            {
              "internalType": "uint256",
              "name": "id",
              "type": "uint256"
            },
            {
              "internalType": "string",
              "name": "name",
              "type": "string"
            },
            {
              "internalType": "uint256",
              "name": "voteCount",
              "type": "uint256"
            }
          ],
          "internalType": "struct VotingPlatform.Candidate[]",
          "name": "results",
          "type": "tuple[]"
        }
      ],
      "stateMutability": "view",
      "type": "function"
    },
    {
      "inputs": [
        {
          "internalType": "uint256",
          "name": "electionId",
          "type": "uint256"
        },
        {
          "internalType": "uint256",
          "name": "candidateId",
          "type": "uint256"
        }
      ],
      "name": "getVotersForCandidate",
      "outputs": [
        {
          "internalType": "address[]",
          "name": "voters",
          "type": "address[]"
        }
      ],
      "stateMutability": "view",
      "type": "function"
    },
    {
      "inputs": [
        {
          "internalType": "uint256",
          "name": "",
          "type": "uint256"
        },
        {
          "internalType": "address",
          "name": "",
          "type": "address"
        }
      ],
      "name": "hasRequestedToJoin",
      "outputs": [
        {
          "internalType": "bool",
          "name": "",
          "type": "bool"
        }
      ],
      "stateMutability": "view",
      "type": "function"
    },
    {
      "inputs": [
        {
          "internalType": "uint256",
          "name": "",
          "type": "uint256"
        },
        {
          "internalType": "address",
          "name": "",
          "type": "address"
        }
      ],
      "name": "isEligible",
      "outputs": [
        {
          "internalType": "bool",
          "name": "",
          "type": "bool"
        }
      ],
      "stateMutability": "view",
      "type": "function"
    },
    {
      "inputs": [
        {
          "internalType": "uint256",
          "name": "",
          "type": "uint256"
        },
        {
          "internalType": "address",
          "name": "",
          "type": "address"
        }
      ],
      "name": "isJoinRequestPending",
      "outputs": [
        {
          "internalType": "bool",
          "name": "",
          "type": "bool"
        }
      ],
      "stateMutability": "view",
      "type": "function"
    },
    {
      "inputs": [
        {
          "internalType": "uint256",
          "name": "electionId",
          "type": "uint256"
        },
        {
          "internalType": "address[]",
          "name": "voters",
          "type": "address[]"
        }
      ],
      "name": "registerVoters",
      "outputs": [],
      "stateMutability": "nonpayable",
      "type": "function"
    },
    {
      "inputs": [
        {
          "internalType": "uint256",
          "name": "electionId",
          "type": "uint256"
        }
      ],
      "name": "requestToJoin",
      "outputs": [],
      "stateMutability": "nonpayable",
      "type": "function"
    },
    {
      "inputs": [
        {
          "internalType": "uint256",
          "name": "electionId",
          "type": "uint256"
        }
      ],
      "name": "revokeVote",
      "outputs": [],
      "stateMutability": "nonpayable",
      "type": "function"
    },
    {
      "inputs": [
        {
          "internalType": "uint256",
          "name": "electionId",
          "type": "uint256"
        },
        {
          "internalType": "uint256",
          "name": "candidateId",
          "type": "uint256"
        }
      ],
      "name": "vote",
      "outputs": [],
      "stateMutability": "nonpayable",
      "type": "function"
    },
    {
      "inputs": [
        {
          "internalType": "uint256",
          "name": "",
          "type": "uint256"
        },
        {
          "internalType": "address",
          "name": "",
          "type": "address"
        }
      ],
      "name": "voteOf",
      "outputs": [
        {
          "internalType": "uint256",
          "name": "",
          "type": "uint256"
        }
      ],
      "stateMutability": "view",
      "type": "function"
    }
  ],
  "bytecode": "0x608060405234801561001057600080fd5b506141cb806100206000396000f3fe608060405234801561001057600080fd5b50600436106101215760003560e01c806384022767116100ad578063d6a2857911610071578063d6a2857914610345578063e6a5cbcc14610375578063ed950a5a146103a5578063f73a8b4a146103db578063fc9e4393146103f757610121565b806384022767146102b75780638ff388c7146102d35780639a74c695146102ef578063b384abef1461030d578063d16dd9af1461032957610121565b8063592e0e00116100f4578063592e0e00146101d25780635e6fef0114610202578063740c47d4146102395780637de142421461025557806381a60c0d1461028757610121565b80631750a3d01461012657806328f7c5e21461014257806345ddc85d1461017257806354b9e998146101a2575b600080fd5b610140600480360381019061013b9190612d49565b610427565b005b61015c60048036038101906101579190612e07565b610747565b6040516101699190612e62565b60405180910390f35b61018c60048036038101906101879190612e07565b610776565b6040516101999190612e8c565b60405180910390f35b6101bc60048036038101906101b79190612ed3565b61079b565b6040516101c99190612e8c565b60405180910390f35b6101ec60048036038101906101e79190612e07565b610a2e565b6040516101f99190612e62565b60405180910390f35b61021c60048036038101906102179190612f47565b610a5d565b604051610230989796959493929190613013565b60405180910390f35b610253600480360381019061024e9190612f47565b610b67565b005b61026f600480360381019061026a9190613098565b610d70565b60405161027e939291906130d8565b60405180910390f35b6102a1600480360381019061029c9190612f47565b610e2f565b6040516102ae9190613281565b60405180910390f35b6102d160048036038101906102cc9190612f47565b611026565b005b6102ed60048036038101906102e89190612e07565b6114ba565b005b6102f7611905565b6040516103049190612e8c565b60405180910390f35b61032760048036038101906103229190613098565b61190b565b005b610343600480360381019061033e91906132f9565b611d9c565b005b61035f600480360381019061035a9190613098565b6120b9565b60405161036c9190613417565b60405180910390f35b61038f600480360381019061038a9190612e07565b612224565b60405161039c9190612e62565b60405180910390f35b6103bf60048036038101906103ba9190612f47565b612253565b6040516103d29796959493929190613439565b60405180910390f35b6103f560048036038101906103f09190612f47565b6123ca565b005b610411600480360381019061040c9190612f47565b6126b1565b60405161041e9190613417565b60405180910390f35b8260008111801561043a57506000548111155b610479576040517f08c379a0000000000000000000000000000000000000000000000000000000008152600401610470906134fb565b60405180910390fd5b836001600082815260200190815260200160002060020160009054906101000a900473ffffffffffffffffffffffffffffffffffffffff1673ffffffffffffffffffffffffffffffffffffffff163373ffffffffffffffffffffffffffffffffffffffff161461051e576040517f08c379a000000000000000000000000000000000000000000000000000000000815260040161051590613567565b60405180910390fd5b8460006001600083815260200190815260200160002090508060050160009054906101000a900460ff1615610588576040517f08c379a000000000000000000000000000000000000000000000000000000000815260040161057f906135d3565b60405180910390fd5b806004015442106105ce576040517f08c379a00000000000000000000000000000000000000000000000000000000081526004016105c59061363f565b60405180910390fd5b60008686905011610614576040517f08c379a000000000000000000000000000000000000000000000000000000000815260040161060b906136ab565b60405180910390fd5b6000600160008981526020019081526020016000209050600181600601600082825461064091906136fa565b92505081905550600081600601549050604051806060016040528082815260200189898080601f016020809104026020016040519081016040528093929190818152602001838380828437600081840152601f19601f8201169050808301925050505050505081526020016000815250600260008b815260200190815260200160002060008381526020019081526020016000206000820151816000015560208201518160010190816106f39190613969565b506040820151816002015590505080897fed8911b3df733b7d5f75724158e54478ea12e30f49c9d31b5261879f5b76586f8a8a604051610734929190613a77565b60405180910390a3505050505050505050565b60066020528160005260406000206020528060005260406000206000915091509054906101000a900460ff1681565b6003602052816000526040600020602052806000526040600020600091509150505481565b60008085859050116107e2576040517f08c379a00000000000000000000000000000000000000000000000000000000081526004016107d990613ae7565b60405180910390fd5b60008311610825576040517f08c379a000000000000000000000000000000000000000000000000000000000815260040161081c90613b53565b60405180910390fd5b600160008082825461083791906136fa565b92505081905550600054905060004290506000848261085691906136fa565b905060405180610100016040528084815260200188888080601f016020809104026020016040519081016040528093929190818152602001838380828437600081840152601f19601f8201169050808301925050505050505081526020013373ffffffffffffffffffffffffffffffffffffffff16815260200183815260200182815260200160001515815260200185151581526020016000815250600160008581526020019081526020016000206000820151816000015560208201518160010190816109249190613969565b5060408201518160020160006101000a81548173ffffffffffffffffffffffffffffffffffffffff021916908373ffffffffffffffffffffffffffffffffffffffff160217905550606082015181600301556080820151816004015560a08201518160050160006101000a81548160ff02191690831515021790555060c08201518160050160016101000a81548160ff02191690831515021790555060e082015181600601559050503373ffffffffffffffffffffffffffffffffffffffff16837faaff66088e198af26d40e0ff141aa627393557eb7677db2e808fb6cd7e2be902898986868a604051610a1c959493929190613b73565b60405180910390a35050949350505050565b60046020528160005260406000206020528060005260406000206000915091509054906101000a900460ff1681565b6001602052806000526040600020600091509050806000015490806001018054610a869061378c565b80601f0160208091040260200160405190810160405280929190818152602001828054610ab29061378c565b8015610aff5780601f10610ad457610100808354040283529160200191610aff565b820191906000526020600020905b815481529060010190602001808311610ae257829003601f168201915b5050505050908060020160009054906101000a900473ffffffffffffffffffffffffffffffffffffffff16908060030154908060040154908060050160009054906101000a900460ff16908060050160019054906101000a900460ff16908060060154905088565b80600081118015610b7a57506000548111155b610bb9576040517f08c379a0000000000000000000000000000000000000000000000000000000008152600401610bb0906134fb565b60405180910390fd5b816001600082815260200190815260200160002060020160009054906101000a900473ffffffffffffffffffffffffffffffffffffffff1673ffffffffffffffffffffffffffffffffffffffff163373ffffffffffffffffffffffffffffffffffffffff1614610c5e576040517f08c379a0000000000000000000000000000000000000000000000000000000008152600401610c5590613567565b60405180910390fd5b8260006001600083815260200190815260200160002090508060050160009054906101000a900460ff1615610cc8576040517f08c379a0000000000000000000000000000000000000000000000000000000008152600401610cbf906135d3565b60405180910390fd5b80600401544210610d0e576040517f08c379a0000000000000000000000000000000000000000000000000000000008152600401610d059061363f565b60405180910390fd5b600180600087815260200190815260200160002060050160006101000a81548160ff021916908315150217905550847fbb78d5fa658dbdad95908d420646ea8bb64f50a9daa1acaa682effe6703f1ed760405160405180910390a25050505050565b600260205281600052604060002060205280600052604060002060009150915050806000015490806001018054610da69061378c565b80601f0160208091040260200160405190810160405280929190818152602001828054610dd29061378c565b8015610e1f5780601f10610df457610100808354040283529160200191610e1f565b820191906000526020600020905b815481529060010190602001808311610e0257829003601f168201915b5050505050908060020154905083565b606081600081118015610e4457506000548111155b610e83576040517f08c379a0000000000000000000000000000000000000000000000000000000008152600401610e7a906134fb565b60405180910390fd5b6000600160008581526020019081526020016000209050806006015467ffffffffffffffff811115610eb857610eb761372e565b5b604051908082528060200260200182016040528015610ef157816020015b610ede612c83565b815260200190600190039081610ed65790505b50925060005b816006015481101561101e576000600182610f1291906136fa565b905060006002600088815260200190815260200160002060008381526020019081526020016000209050604051806060016040528082600001548152602001826001018054610f609061378c565b80601f0160208091040260200160405190810160405280929190818152602001828054610f8c9061378c565b8015610fd95780601f10610fae57610100808354040283529160200191610fd9565b820191906000526020600020905b815481529060010190602001808311610fbc57829003601f168201915b505050505081526020018260020154815250868481518110610ffe57610ffd613bc1565b5b60200260200101819052505050808061101690613bf0565b915050610ef7565b505050919050565b8060008111801561103957506000548111155b611078576040517f08c379a000000000000000000000000000000000000000000000000000000000815260040161106f906134fb565b60405180910390fd5b8160006001600083815260200190815260200160002090508060050160009054906101000a900460ff16156110e2576040517f08c379a00000000000000000000000000000000000000000000000000000000081526004016110d9906135d3565b60405180910390fd5b80600401544210611128576040517f08c379a000000000000000000000000000000000000000000000000000000000815260040161111f9061363f565b60405180910390fd5b6001600085815260200190815260200160002060050160019054906101000a900460ff1661118b576040517f08c379a000000000000000000000000000000000000000000000000000000000815260040161118290613c84565b60405180910390fd5b6004600085815260200190815260200160002060003373ffffffffffffffffffffffffffffffffffffffff1673ffffffffffffffffffffffffffffffffffffffff16815260200190815260200160002060009054906101000a900460ff1615611229576040517f08c379a000000000000000000000000000000000000000000000000000000000815260040161122090613cf0565b60405180910390fd5b6006600085815260200190815260200160002060003373ffffffffffffffffffffffffffffffffffffffff1673ffffffffffffffffffffffffffffffffffffffff16815260200190815260200160002060009054906101000a900460ff16156112c7576040517f08c379a00000000000000000000000000000000000000000000000000000000081526004016112be90613d5c565b60405180910390fd5b60016006600086815260200190815260200160002060003373ffffffffffffffffffffffffffffffffffffffff1673ffffffffffffffffffffffffffffffffffffffff16815260200190815260200160002060006101000a81548160ff0219169083151502179055506005600085815260200190815260200160002060003373ffffffffffffffffffffffffffffffffffffffff1673ffffffffffffffffffffffffffffffffffffffff16815260200190815260200160002060009054906101000a900460ff166114705760016005600086815260200190815260200160002060003373ffffffffffffffffffffffffffffffffffffffff1673ffffffffffffffffffffffffffffffffffffffff16815260200190815260200160002060006101000a81548160ff02191690831515021790555060076000858152602001908152602001600020339080600181540180825580915050600190039060005260206000200160009091909190916101000a81548173ffffffffffffffffffffffffffffffffffffffff021916908373ffffffffffffffffffffffffffffffffffffffff1602179055505b3373ffffffffffffffffffffffffffffffffffffffff16847f45a9395af8803805c830b5c9f65e10cd8f75706b5220931c11184880350d489e60405160405180910390a350505050565b816000811180156114cd57506000548111155b61150c576040517f08c379a0000000000000000000000000000000000000000000000000000000008152600401611503906134fb565b60405180910390fd5b826001600082815260200190815260200160002060020160009054906101000a900473ffffffffffffffffffffffffffffffffffffffff1673ffffffffffffffffffffffffffffffffffffffff163373ffffffffffffffffffffffffffffffffffffffff16146115b1576040517f08c379a00000000000000000000000000000000000000000000000000000000081526004016115a890613567565b60405180910390fd5b8360006001600083815260200190815260200160002090508060050160009054906101000a900460ff161561161b576040517f08c379a0000000000000000000000000000000000000000000000000000000008152600401611612906135d3565b60405180910390fd5b80600401544210611661576040517f08c379a00000000000000000000000000000000000000000000000000000000081526004016116589061363f565b60405180910390fd5b6001600087815260200190815260200160002060050160019054906101000a900460ff166116c4576040517f08c379a00000000000000000000000000000000000000000000000000000000081526004016116bb90613c84565b60405180910390fd5b600073ffffffffffffffffffffffffffffffffffffffff168573ffffffffffffffffffffffffffffffffffffffff1603611733576040517f08c379a000000000000000000000000000000000000000000000000000000000815260040161172a90613dc8565b60405180910390fd5b6006600087815260200190815260200160002060008673ffffffffffffffffffffffffffffffffffffffff1673ffffffffffffffffffffffffffffffffffffffff16815260200190815260200160002060009054906101000a900460ff166117d0576040517f08c379a00000000000000000000000000000000000000000000000000000000081526004016117c790613e34565b60405180910390fd5b60006006600088815260200190815260200160002060008773ffffffffffffffffffffffffffffffffffffffff1673ffffffffffffffffffffffffffffffffffffffff16815260200190815260200160002060006101000a81548160ff02191690831515021790555060016004600088815260200190815260200160002060008773ffffffffffffffffffffffffffffffffffffffff1673ffffffffffffffffffffffffffffffffffffffff16815260200190815260200160002060006101000a81548160ff0219169083151502179055503373ffffffffffffffffffffffffffffffffffffffff168573ffffffffffffffffffffffffffffffffffffffff16877fc3685ccc1089f78aab412b6ade28f0c9ff18ac60ae601e9d4bd8f34e875a65bf60405160405180910390a4505050505050565b60005481565b8160008111801561191e57506000548111155b61195d576040517f08c379a0000000000000000000000000000000000000000000000000000000008152600401611954906134fb565b60405180910390fd5b8260006001600083815260200190815260200160002090508060050160009054906101000a900460ff16156119c7576040517f08c379a00000000000000000000000000000000000000000000000000000000081526004016119be906135d3565b60405180910390fd5b80600401544210611a0d576040517f08c379a0000000000000000000000000000000000000000000000000000000008152600401611a049061363f565b60405180910390fd5b611a1785336127a5565b6000600160008781526020019081526020016000209050600085118015611a42575080600601548511155b611a81576040517f08c379a0000000000000000000000000000000000000000000000000000000008152600401611a7890613ea0565b60405180910390fd5b60006003600088815260200190815260200160002060003373ffffffffffffffffffffffffffffffffffffffff1673ffffffffffffffffffffffffffffffffffffffff16815260200190815260200160002054905060008103611bc957856003600089815260200190815260200160002060003373ffffffffffffffffffffffffffffffffffffffff1673ffffffffffffffffffffffffffffffffffffffff1681526020019081526020016000208190555060016002600089815260200190815260200160002060008881526020019081526020016000206002016000828254611b6b91906136fa565b92505081905550611b7d878733612870565b853373ffffffffffffffffffffffffffffffffffffffff16887f2acce567deca3aabf56327adbb4524bd5318936eaefa69e3a5208ffda0cfec0960405160405180910390a45050611d95565b858103611c0b576040517f08c379a0000000000000000000000000000000000000000000000000000000008152600401611c0290613f0c565b60405180910390fd5b600060026000898152602001908152602001600020600083815260200190815260200160002090506000816002015411611c7a576040517f08c379a0000000000000000000000000000000000000000000000000000000008152600401611c7190613f78565b60405180910390fd5b6001816002016000828254611c8f9190613f98565b92505081905550611ca18883336129f1565b6001600260008a815260200190815260200160002060008981526020019081526020016000206002016000828254611cd991906136fa565b92505081905550611ceb888833612870565b86600360008a815260200190815260200160002060003373ffffffffffffffffffffffffffffffffffffffff1673ffffffffffffffffffffffffffffffffffffffff168152602001908152602001600020819055503373ffffffffffffffffffffffffffffffffffffffff16887f5f441ad092f24a51b249298a3695ee0ddae820f5c9b01a017a298a32fc3557f2848a604051611d89929190613fcc565b60405180910390a35050505b5050505050565b82600081118015611daf57506000548111155b611dee576040517f08c379a0000000000000000000000000000000000000000000000000000000008152600401611de5906134fb565b60405180910390fd5b836001600082815260200190815260200160002060020160009054906101000a900473ffffffffffffffffffffffffffffffffffffffff1673ffffffffffffffffffffffffffffffffffffffff163373ffffffffffffffffffffffffffffffffffffffff1614611e93576040517f08c379a0000000000000000000000000000000000000000000000000000000008152600401611e8a90613567565b60405180910390fd5b8460006001600083815260200190815260200160002090508060050160009054906101000a900460ff1615611efd576040517f08c379a0000000000000000000000000000000000000000000000000000000008152600401611ef4906135d3565b60405180910390fd5b80600401544210611f43576040517f08c379a0000000000000000000000000000000000000000000000000000000008152600401611f3a9061363f565b60405180910390fd5b60008686905011611f89576040517f08c379a0000000000000000000000000000000000000000000000000000000008152600401611f8090614041565b60405180910390fd5b60005b868690508110156120af576000878783818110611fac57611fab613bc1565b5b9050602002016020810190611fc19190614061565b9050600073ffffffffffffffffffffffffffffffffffffffff168173ffffffffffffffffffffffffffffffffffffffff1603612032576040517f08c379a000000000000000000000000000000000000000000000000000000000815260040161202990613dc8565b60405180910390fd5b6001600460008b815260200190815260200160002060008373ffffffffffffffffffffffffffffffffffffffff1673ffffffffffffffffffffffffffffffffffffffff16815260200190815260200160002060006101000a81548160ff0219169083151502179055505080806120a790613bf0565b915050611f8c565b5050505050505050565b6060826000811180156120ce57506000548111155b61210d576040517f08c379a0000000000000000000000000000000000000000000000000000000008152600401612104906134fb565b60405180910390fd5b600083118015612133575060016000858152602001908152602001600020600601548311155b612172576040517f08c379a000000000000000000000000000000000000000000000000000000000815260040161216990613ea0565b60405180910390fd5b60086000858152602001908152602001600020600084815260200190815260200160002080548060200260200160405190810160405280929190818152602001828054801561221657602002820191906000526020600020905b8160009054906101000a900473ffffffffffffffffffffffffffffffffffffffff1673ffffffffffffffffffffffffffffffffffffffff16815260200190600101908083116121cc575b505050505091505092915050565b60056020528160005260406000206020528060005260406000206000915091509054906101000a900460ff1681565b60606000806000806000808760008111801561227157506000548111155b6122b0576040517f08c379a00000000000000000000000000000000000000000000000000000000081526004016122a7906134fb565b60405180910390fd5b6000600160008b81526020019081526020016000209050806001018160020160009054906101000a900473ffffffffffffffffffffffffffffffffffffffff16826003015483600401548460050160009054906101000a900460ff168560050160019054906101000a900460ff16866006015486805461232f9061378c565b80601f016020809104026020016040519081016040528092919081815260200182805461235b9061378c565b80156123a85780601f1061237d576101008083540402835291602001916123a8565b820191906000526020600020905b81548152906001019060200180831161238b57829003601f168201915b5050505050965098509850985098509850985098505050919395979092949650565b806000811180156123dd57506000548111155b61241c576040517f08c379a0000000000000000000000000000000000000000000000000000000008152600401612413906134fb565b60405180910390fd5b8160006001600083815260200190815260200160002090508060050160009054906101000a900460ff1615612486576040517f08c379a000000000000000000000000000000000000000000000000000000000815260040161247d906135d3565b60405180910390fd5b806004015442106124cc576040517f08c379a00000000000000000000000000000000000000000000000000000000081526004016124c39061363f565b60405180910390fd5b6124d684336127a5565b60006003600086815260200190815260200160002060003373ffffffffffffffffffffffffffffffffffffffff1673ffffffffffffffffffffffffffffffffffffffff1681526020019081526020016000205490506000810361256e576040517f08c379a0000000000000000000000000000000000000000000000000000000008152600401612565906140da565b60405180910390fd5b6000600260008781526020019081526020016000206000838152602001908152602001600020905060008160020154116125dd576040517f08c379a00000000000000000000000000000000000000000000000000000000081526004016125d490613f78565b60405180910390fd5b60018160020160008282546125f29190613f98565b925050819055506126048683336129f1565b60006003600088815260200190815260200160002060003373ffffffffffffffffffffffffffffffffffffffff1673ffffffffffffffffffffffffffffffffffffffff168152602001908152602001600020819055503373ffffffffffffffffffffffffffffffffffffffff16867f3f6e81bd7cd2eb7b3170d79696ba406902b871b6458156e4bfc678abf9fe61d8846040516126a19190612e8c565b60405180910390a3505050505050565b6060816000811180156126c657506000548111155b612705576040517f08c379a00000000000000000000000000000000000000000000000000000000081526004016126fc906134fb565b60405180910390fd5b6007600084815260200190815260200160002080548060200260200160405190810160405280929190818152602001828054801561279857602002820191906000526020600020905b8160009054906101000a900473ffffffffffffffffffffffffffffffffffffffff1673ffffffffffffffffffffffffffffffffffffffff168152602001906001019080831161274e575b5050505050915050919050565b6001600083815260200190815260200160002060050160019054906101000a900460ff161561286c576004600083815260200190815260200160002060008273ffffffffffffffffffffffffffffffffffffffff1673ffffffffffffffffffffffffffffffffffffffff16815260200190815260200160002060009054906101000a900460ff1661286b576040517f08c379a000000000000000000000000000000000000000000000000000000000815260040161286290614146565b60405180910390fd5b5b5050565b600060096000858152602001908152602001600020600084815260200190815260200160002060008373ffffffffffffffffffffffffffffffffffffffff1673ffffffffffffffffffffffffffffffffffffffff16815260200190815260200160002054036129ec57600860008481526020019081526020016000206000838152602001908152602001600020819080600181540180825580915050600190039060005260206000200160009091909190916101000a81548173ffffffffffffffffffffffffffffffffffffffff021916908373ffffffffffffffffffffffffffffffffffffffff1602179055506008600084815260200190815260200160002060008381526020019081526020016000208054905060096000858152602001908152602001600020600084815260200190815260200160002060008373ffffffffffffffffffffffffffffffffffffffff1673ffffffffffffffffffffffffffffffffffffffff168152602001908152602001600020819055505b505050565b600060096000858152602001908152602001600020600084815260200190815260200160002060008373ffffffffffffffffffffffffffffffffffffffff1673ffffffffffffffffffffffffffffffffffffffff16815260200190815260200160002054905060008103612a655750612c7e565b6000600182612a749190613f98565b905060006008600087815260200190815260200160002060008681526020019081526020016000209050600060018280549050612ab19190613f98565b9050808314612bcc576000828281548110612acf57612ace613bc1565b5b9060005260206000200160009054906101000a900473ffffffffffffffffffffffffffffffffffffffff16905080838581548110612b1057612b0f613bc1565b5b9060005260206000200160006101000a81548173ffffffffffffffffffffffffffffffffffffffff021916908373ffffffffffffffffffffffffffffffffffffffff160217905550600184612b6591906136fa565b600960008a8152602001908152602001600020600089815260200190815260200160002060008373ffffffffffffffffffffffffffffffffffffffff1673ffffffffffffffffffffffffffffffffffffffff16815260200190815260200160002081905550505b81805480612bdd57612bdc614166565b5b6001900381819060005260206000200160006101000a81549073ffffffffffffffffffffffffffffffffffffffff02191690559055600060096000898152602001908152602001600020600088815260200190815260200160002060008773ffffffffffffffffffffffffffffffffffffffff1673ffffffffffffffffffffffffffffffffffffffff16815260200190815260200160002081905550505050505b505050565b60405180606001604052806000815260200160608152602001600081525090565b600080fd5b600080fd5b6000819050919050565b612cc181612cae565b8114612ccc57600080fd5b50565b600081359050612cde81612cb8565b92915050565b600080fd5b600080fd5b600080fd5b60008083601f840112612d0957612d08612ce4565b5b8235905067ffffffffffffffff811115612d2657612d25612ce9565b5b602083019150836001820283011115612d4257612d41612cee565b5b9250929050565b600080600060408486031215612d6257612d61612ca4565b5b6000612d7086828701612ccf565b935050602084013567ffffffffffffffff811115612d9157612d90612ca9565b5b612d9d86828701612cf3565b92509250509250925092565b600073ffffffffffffffffffffffffffffffffffffffff82169050919050565b6000612dd482612da9565b9050919050565b612de481612dc9565b8114612def57600080fd5b50565b600081359050612e0181612ddb565b92915050565b60008060408385031215612e1e57612e1d612ca4565b5b6000612e2c85828601612ccf565b9250506020612e3d85828601612df2565b9150509250929050565b60008115159050919050565b612e5c81612e47565b82525050565b6000602082019050612e776000830184612e53565b92915050565b612e8681612cae565b82525050565b6000602082019050612ea16000830184612e7d565b92915050565b612eb081612e47565b8114612ebb57600080fd5b50565b600081359050612ecd81612ea7565b92915050565b60008060008060608587031215612eed57612eec612ca4565b5b600085013567ffffffffffffffff811115612f0b57612f0a612ca9565b5b612f1787828801612cf3565b94509450506020612f2a87828801612ccf565b9250506040612f3b87828801612ebe565b91505092959194509250565b600060208284031215612f5d57612f5c612ca4565b5b6000612f6b84828501612ccf565b91505092915050565b600081519050919050565b600082825260208201905092915050565b60005b83811015612fae578082015181840152602081019050612f93565b60008484015250505050565b6000601f19601f8301169050919050565b6000612fd682612f74565b612fe08185612f7f565b9350612ff0818560208601612f90565b612ff981612fba565b840191505092915050565b61300d81612dc9565b82525050565b600061010082019050613029600083018b612e7d565b818103602083015261303b818a612fcb565b905061304a6040830189613004565b6130576060830188612e7d565b6130646080830187612e7d565b61307160a0830186612e53565b61307e60c0830185612e53565b61308b60e0830184612e7d565b9998505050505050505050565b600080604083850312156130af576130ae612ca4565b5b60006130bd85828601612ccf565b92505060206130ce85828601612ccf565b9150509250929050565b60006060820190506130ed6000830186612e7d565b81810360208301526130ff8185612fcb565b905061310e6040830184612e7d565b949350505050565b600081519050919050565b600082825260208201905092915050565b6000819050602082019050919050565b61314b81612cae565b82525050565b600082825260208201905092915050565b600061316d82612f74565b6131778185613151565b9350613187818560208601612f90565b61319081612fba565b840191505092915050565b60006060830160008301516131b36000860182613142565b50602083015184820360208601526131cb8282613162565b91505060408301516131e06040860182613142565b508091505092915050565b60006131f7838361319b565b905092915050565b6000602082019050919050565b600061321782613116565b6132218185613121565b93508360208202850161323385613132565b8060005b8581101561326f578484038952815161325085826131eb565b945061325b836131ff565b925060208a01995050600181019050613237565b50829750879550505050505092915050565b6000602082019050818103600083015261329b818461320c565b905092915050565b60008083601f8401126132b9576132b8612ce4565b5b8235905067ffffffffffffffff8111156132d6576132d5612ce9565b5b6020830191508360208202830111156132f2576132f1612cee565b5b9250929050565b60008060006040848603121561331257613311612ca4565b5b600061332086828701612ccf565b935050602084013567ffffffffffffffff81111561334157613340612ca9565b5b61334d868287016132a3565b92509250509250925092565b600081519050919050565b600082825260208201905092915050565b6000819050602082019050919050565b61338e81612dc9565b82525050565b60006133a08383613385565b60208301905092915050565b6000602082019050919050565b60006133c482613359565b6133ce8185613364565b93506133d983613375565b8060005b8381101561340a5781516133f18882613394565b97506133fc836133ac565b9250506001810190506133dd565b5085935050505092915050565b6000602082019050818103600083015261343181846133b9565b905092915050565b600060e0820190508181036000830152613453818a612fcb565b90506134626020830189613004565b61346f6040830188612e7d565b61347c6060830187612e7d565b6134896080830186612e53565b61349660a0830185612e53565b6134a360c0830184612e7d565b98975050505050505050565b7f456c656374696f6e206e6f7420666f756e640000000000000000000000000000600082015250565b60006134e5601283612f7f565b91506134f0826134af565b602082019050919050565b60006020820190508181036000830152613514816134d8565b9050919050565b7f4f6e6c7920656c656374696f6e206f776e657200000000000000000000000000600082015250565b6000613551601383612f7f565b915061355c8261351b565b602082019050919050565b6000602082019050818103600083015261358081613544565b9050919050565b7f456c656374696f6e2064656c6574656400000000000000000000000000000000600082015250565b60006135bd601083612f7f565b91506135c882613587565b602082019050919050565b600060208201905081810360008301526135ec816135b0565b9050919050565b7f456c656374696f6e20656e646564000000000000000000000000000000000000600082015250565b6000613629600e83612f7f565b9150613634826135f3565b602082019050919050565b600060208201905081810360008301526136588161361c565b9050919050565b7f4e616d6520726571756972656400000000000000000000000000000000000000600082015250565b6000613695600d83612f7f565b91506136a08261365f565b602082019050919050565b600060208201905081810360008301526136c481613688565b9050919050565b7f4e487b7100000000000000000000000000000000000000000000000000000000600052601160045260246000fd5b600061370582612cae565b915061371083612cae565b9250828201905080821115613728576137276136cb565b5b92915050565b7f4e487b7100000000000000000000000000000000000000000000000000000000600052604160045260246000fd5b7f4e487b7100000000000000000000000000000000000000000000000000000000600052602260045260246000fd5b600060028204905060018216806137a457607f821691505b6020821081036137b7576137b661375d565b5b50919050565b60008190508160005260206000209050919050565b60006020601f8301049050919050565b600082821b905092915050565b60006008830261381f7fffffffffffffffffffffffffffffffffffffffffffffffffffffffffffffffff826137e2565b61382986836137e2565b95508019841693508086168417925050509392505050565b6000819050919050565b600061386661386161385c84612cae565b613841565b612cae565b9050919050565b6000819050919050565b6138808361384b565b61389461388c8261386d565b8484546137ef565b825550505050565b600090565b6138a961389c565b6138b4818484613877565b505050565b5b818110156138d8576138cd6000826138a1565b6001810190506138ba565b5050565b601f82111561391d576138ee816137bd565b6138f7846137d2565b81016020851015613906578190505b61391a613912856137d2565b8301826138b9565b50505b505050565b600082821c905092915050565b600061394060001984600802613922565b1980831691505092915050565b6000613959838361392f565b9150826002028217905092915050565b61397282612f74565b67ffffffffffffffff81111561398b5761398a61372e565b5b613995825461378c565b6139a08282856138dc565b600060209050601f8311600181146139d357600084156139c1578287015190505b6139cb858261394d565b865550613a33565b601f1984166139e1866137bd565b60005b82811015613a09578489015182556001820191506020850194506020810190506139e4565b86831015613a265784890151613a22601f89168261392f565b8355505b6001600288020188555050505b505050505050565b82818337600083830152505050565b6000613a568385612f7f565b9350613a63838584613a3b565b613a6c83612fba565b840190509392505050565b60006020820190508181036000830152613a92818486613a4a565b90509392505050565b7f5469746c65207265717569726564000000000000000000000000000000000000600082015250565b6000613ad1600e83612f7f565b9150613adc82613a9b565b602082019050919050565b60006020820190508181036000830152613b0081613ac4565b9050919050565b7f4475726174696f6e207265717569726564000000000000000000000000000000600082015250565b6000613b3d601183612f7f565b9150613b4882613b07565b602082019050919050565b60006020820190508181036000830152613b6c81613b30565b9050919050565b60006080820190508181036000830152613b8e818789613a4a565b9050613b9d6020830186612e7d565b613baa6040830185612e7d565b613bb76060830184612e53565b9695505050505050565b7f4e487b7100000000000000000000000000000000000000000000000000000000600052603260045260246000fd5b6000613bfb82612cae565b91507fffffffffffffffffffffffffffffffffffffffffffffffffffffffffffffffff8203613c2d57613c2c6136cb565b5b600182019050919050565b7f57686974656c6973742064697361626c65640000000000000000000000000000600082015250565b6000613c6e601283612f7f565b9150613c7982613c38565b602082019050919050565b60006020820190508181036000830152613c9d81613c61565b9050919050565b7f416c726561647920656c696769626c6500000000000000000000000000000000600082015250565b6000613cda601083612f7f565b9150613ce582613ca4565b602082019050919050565b60006020820190508181036000830152613d0981613ccd565b9050919050565b7f5265717565737420616c72656164792070656e64696e67000000000000000000600082015250565b6000613d46601783612f7f565b9150613d5182613d10565b602082019050919050565b60006020820190508181036000830152613d7581613d39565b9050919050565b7f5a65726f20616464726573730000000000000000000000000000000000000000600082015250565b6000613db2600c83612f7f565b9150613dbd82613d7c565b602082019050919050565b60006020820190508181036000830152613de181613da5565b9050919050565b7f4e6f2070656e64696e6720726571756573740000000000000000000000000000600082015250565b6000613e1e601283612f7f565b9150613e2982613de8565b602082019050919050565b60006020820190508181036000830152613e4d81613e11565b9050919050565b7f496e76616c69642063616e646964617465000000000000000000000000000000600082015250565b6000613e8a601183612f7f565b9150613e9582613e54565b602082019050919050565b60006020820190508181036000830152613eb981613e7d565b9050919050565b7f416c726561647920766f74656420746869732063616e64696461746500000000600082015250565b6000613ef6601c83612f7f565b9150613f0182613ec0565b602082019050919050565b60006020820190508181036000830152613f2581613ee9565b9050919050565b7f436f727275707420766f7465436f756e74000000000000000000000000000000600082015250565b6000613f62601183612f7f565b9150613f6d82613f2c565b602082019050919050565b60006020820190508181036000830152613f9181613f55565b9050919050565b6000613fa382612cae565b9150613fae83612cae565b9250828203905081811115613fc657613fc56136cb565b5b92915050565b6000604082019050613fe16000830185612e7d565b613fee6020830184612e7d565b9392505050565b7f456d707479206c69737400000000000000000000000000000000000000000000600082015250565b600061402b600a83612f7f565b915061403682613ff5565b602082019050919050565b6000602082019050818103600083015261405a8161401e565b9050919050565b60006020828403121561407757614076612ca4565b5b600061408584828501612df2565b91505092915050565b7f4e6f20766f746520746f207265766f6b65000000000000000000000000000000600082015250565b60006140c4601183612f7f565b91506140cf8261408e565b602082019050919050565b600060208201905081810360008301526140f3816140b7565b9050919050565b7f4e6f742077686974656c69737465640000000000000000000000000000000000600082015250565b6000614130600f83612f7f565b915061413b826140fa565b602082019050919050565b6000602082019050818103600083015261415f81614123565b9050919050565b7f4e487b7100000000000000000000000000000000000000000000000000000000600052603160045260246000fdfea264697066735822122064dfed5fa7a31ce58efca85171f663a0f7f5f899c62f32d38500fddad27f58c664736f6c63430008140033",
  "linkReferences": {},
  "deployedLinkReferences": {}
}